{
  "contractName": "Casino",
  "abi": [
    {
      "constant": true,
      "inputs": [],
      "name": "numberOfBets",
      "outputs": [
        {
          "name": "",
          "type": "uint16"
        }
      ],
      "payable": false,
      "stateMutability": "view",
      "type": "function"
    },
    {
      "constant": true,
      "inputs": [
        {
          "name": "",
          "type": "address"
        }
      ],
      "name": "playerInfo",
      "outputs": [
        {
          "name": "amountBet",
          "type": "uint256"
        },
        {
          "name": "numberSelected",
          "type": "uint16"
        }
      ],
      "payable": false,
      "stateMutability": "view",
      "type": "function"
    },
    {
      "constant": true,
      "inputs": [],
      "name": "owner",
      "outputs": [
        {
          "name": "",
          "type": "address"
        }
      ],
      "payable": false,
      "stateMutability": "view",
      "type": "function"
    },
    {
      "constant": true,
      "inputs": [],
      "name": "minimumBet",
      "outputs": [
        {
          "name": "",
          "type": "uint16"
        }
      ],
      "payable": false,
      "stateMutability": "view",
      "type": "function"
    },
    {
      "constant": true,
      "inputs": [],
      "name": "maxAmountOfBets",
      "outputs": [
        {
          "name": "",
          "type": "uint16"
        }
      ],
      "payable": false,
      "stateMutability": "view",
      "type": "function"
    },
    {
      "constant": true,
      "inputs": [
        {
          "name": "",
          "type": "uint256"
        }
      ],
      "name": "players",
      "outputs": [
        {
          "name": "",
          "type": "address"
        }
      ],
      "payable": false,
      "stateMutability": "view",
      "type": "function"
    },
    {
      "constant": true,
      "inputs": [],
      "name": "totalBet",
      "outputs": [
        {
          "name": "",
          "type": "uint256"
        }
      ],
      "payable": false,
      "stateMutability": "view",
      "type": "function"
    },
    {
      "inputs": [
        {
          "name": "_minimumBet",
          "type": "uint16"
        }
      ],
      "payable": false,
      "stateMutability": "nonpayable",
      "type": "constructor"
    },
    {
      "payable": true,
      "stateMutability": "payable",
      "type": "fallback"
    },
    {
      "constant": false,
      "inputs": [],
      "name": "kill",
      "outputs": [],
      "payable": false,
      "stateMutability": "nonpayable",
      "type": "function"
    },
    {
      "constant": true,
      "inputs": [
        {
          "name": "player",
          "type": "address"
        }
      ],
      "name": "checkPlayerExists",
      "outputs": [
        {
          "name": "",
          "type": "bool"
        }
      ],
      "payable": false,
      "stateMutability": "view",
      "type": "function"
    },
    {
      "constant": false,
      "inputs": [
        {
          "name": "numberSelected",
          "type": "uint16"
        }
      ],
      "name": "bet",
      "outputs": [],
      "payable": true,
      "stateMutability": "payable",
      "type": "function"
    },
    {
      "constant": false,
      "inputs": [],
      "name": "generateNumberWinner",
      "outputs": [],
      "payable": false,
      "stateMutability": "nonpayable",
      "type": "function"
    },
    {
      "constant": false,
      "inputs": [
        {
          "name": "numberWinner",
          "type": "uint256"
        }
      ],
      "name": "distributePrizes",
      "outputs": [],
      "payable": false,
      "stateMutability": "nonpayable",
      "type": "function"
    },
    {
      "constant": false,
      "inputs": [],
      "name": "resetData",
      "outputs": [],
      "payable": false,
      "stateMutability": "nonpayable",
      "type": "function"
    }
  ],
  "bytecode": "0x606060405260646002806101000a81548161ffff021916908361ffff160217905550341561002c57600080fd5b604051602080610b9e83398101604052808051906020019091905050336000806101000a81548173ffffffffffffffffffffffffffffffffffffffff021916908373ffffffffffffffffffffffffffffffffffffffff16021790555060008161ffff161415156100b45780600060146101000a81548161ffff021916908361ffff1602179055505b50610ada806100c46000396000f3006060604052600436106100c5576000357c0100000000000000000000000000000000000000000000000000000000900463ffffffff1680630a50e361146100c75780632ca8c6d3146100dc5780634081d9161461010d57806341c0e1b51461015e578063478c4e0e146101735780634b114691146101885780636ca3fc3b146101e45780638da5cb5b14610207578063bebcf6eb1461025c578063c38a8afd14610278578063e08a96cd146102a9578063f71d96cb146102da578063fe5e18531461033d575b005b34156100d257600080fd5b6100da610366565b005b34156100e757600080fd5b6100ef610386565b604051808261ffff1661ffff16815260200191505060405180910390f35b341561011857600080fd5b610144600480803573ffffffffffffffffffffffffffffffffffffffff1690602001909190505061039a565b604051808215151515815260200191505060405180910390f35b341561016957600080fd5b610171610443565b005b341561017e57600080fd5b6101866104d4565b005b341561019357600080fd5b6101bf600480803573ffffffffffffffffffffffffffffffffffffffff1690602001909190505061050c565b604051808381526020018261ffff1661ffff1681526020019250505060405180910390f35b34156101ef57600080fd5b610205600480803590602001909190505061053e565b005b341561021257600080fd5b61021a6107b5565b604051808273ffffffffffffffffffffffffffffffffffffffff1673ffffffffffffffffffffffffffffffffffffffff16815260200191505060405180910390f35b610276600480803561ffff169060200190919050506107da565b005b341561028357600080fd5b61028b610986565b604051808261ffff1661ffff16815260200191505060405180910390f35b34156102b457600080fd5b6102bc61099a565b604051808261ffff1661ffff16815260200191505060405180910390f35b34156102e557600080fd5b6102fb60048080359060200190919050506109ad565b604051808273ffffffffffffffffffffffffffffffffffffffff1673ffffffffffffffffffffffffffffffffffffffff16815260200191505060405180910390f35b341561034857600080fd5b6103506109ec565b6040518082815260200191505060405180910390f35b60006001600a4381151561037657fe5b060190506103838161053e565b50565b600260009054906101000a900461ffff1681565b6000805b6003805490508161ffff16111515610438578273ffffffffffffffffffffffffffffffffffffffff1660038261ffff168154811015156103da57fe5b906000526020600020900160009054906101000a900473ffffffffffffffffffffffffffffffffffffffff1673ffffffffffffffffffffffffffffffffffffffff16141561042b576001915061043d565b808060010191505061039e565b600091505b50919050565b6000809054906101000a900473ffffffffffffffffffffffffffffffffffffffff1673ffffffffffffffffffffffffffffffffffffffff163373ffffffffffffffffffffffffffffffffffffffff1614156104d2576000809054906101000a900473ffffffffffffffffffffffffffffffffffffffff1673ffffffffffffffffffffffffffffffffffffffff16ff5b565b60006003816104e391906109f2565b5060006001819055506000600260006101000a81548161ffff021916908361ffff160217905550565b60046020528060005260406000206000915090508060000154908060010160009054906101000a900461ffff16905082565b610546610a1e565b60008060008060008094505b6003805490508461ffff161115156107a45760038461ffff1681548110151561057757fe5b906000526020600020900160009054906101000a900473ffffffffffffffffffffffffffffffffffffffff16925086600460008573ffffffffffffffffffffffffffffffffffffffff1673ffffffffffffffffffffffffffffffffffffffff16815260200190815260200160002060010160009054906101000a900461ffff1661ffff1614156106545782868661ffff1660648110151561061457fe5b602002019073ffffffffffffffffffffffffffffffffffffffff16908173ffffffffffffffffffffffffffffffffffffffff168152505084806001019550505b600460008473ffffffffffffffffffffffffffffffffffffffff1673ffffffffffffffffffffffffffffffffffffffff1681526020019081526020016000206000808201600090556001820160006101000a81549061ffff0219169055505060006003816106c291906109f2565b5060646001548115156106d157fe5b049150600090505b60648161ffff1611151561079757600073ffffffffffffffffffffffffffffffffffffffff16868261ffff1660648110151561071157fe5b602002015173ffffffffffffffffffffffffffffffffffffffff1614151561078a57858161ffff1660648110151561074557fe5b602002015173ffffffffffffffffffffffffffffffffffffffff166108fc839081150290604051600060405180830381858888f19350505050151561078957600080fd5b5b80806001019150506106d9565b8380600101945050610552565b6107ac6104d4565b50505050505050565b6000809054906101000a900473ffffffffffffffffffffffffffffffffffffffff1681565b6107e33361039a565b1515156107ef57600080fd5b60018161ffff16101580156108095750600a8161ffff1611155b151561081457600080fd5b600060149054906101000a900461ffff1661ffff16341015151561083757600080fd5b34600460003373ffffffffffffffffffffffffffffffffffffffff1673ffffffffffffffffffffffffffffffffffffffff1681526020019081526020016000206000018190555080600460003373ffffffffffffffffffffffffffffffffffffffff1673ffffffffffffffffffffffffffffffffffffffff16815260200190815260200160002060010160006101000a81548161ffff021916908361ffff1602179055506002600081819054906101000a900461ffff168092919060010191906101000a81548161ffff021916908361ffff16021790555050600380548060010182816109249190610a5d565b9160005260206000209001600033909190916101000a81548173ffffffffffffffffffffffffffffffffffffffff021916908373ffffffffffffffffffffffffffffffffffffffff160217905550503460016000828254019250508190555050565b600060149054906101000a900461ffff1681565b6002809054906101000a900461ffff1681565b6003818154811015156109bc57fe5b90600052602060002090016000915054906101000a900473ffffffffffffffffffffffffffffffffffffffff1681565b60015481565b815481835581811511610a1957818360005260206000209182019101610a189190610a89565b5b505050565b610c80604051908101604052806064905b600073ffffffffffffffffffffffffffffffffffffffff16815260200190600190039081610a2f5790505090565b815481835581811511610a8457818360005260206000209182019101610a839190610a89565b5b505050565b610aab91905b80821115610aa7576000816000905550600101610a8f565b5090565b905600a165627a7a723058206962b6b67381a682df56446853a4ed18ee5ffc2003be5520ec7ce3124398392f0029",
  "source": "pragma solidity ^0.4.4;\r\n\r\ncontract Casino {\r\n    address public owner;\r\n    uint16 public minimumBet;\r\n    uint256 public totalBet;\r\n    uint16 public numberOfBets;\r\n    uint16 public maxAmountOfBets = 100;\r\n    address[] public players;\r\n\r\n    struct Player {\r\n        uint256 amountBet;\r\n        uint16 numberSelected;\r\n    }\r\n\r\n    // The address of the player and => the player Info \r\n    // sender's address is the key, for each address the variables in the Player struct can be stored.\r\n    mapping(address => Player) public playerInfo;\r\n\r\n    function Casino(uint16 _minimumBet) public {\r\n        owner = msg.sender;\r\n        if (_minimumBet != 0 ) minimumBet = _minimumBet;\r\n    }\r\n\r\n    function kill() public {\r\n        if (msg.sender == owner) selfdestruct(owner);\r\n    }\r\n\r\n    function checkPlayerExists(address player) public constant returns(bool) {\r\n        for (uint16 i; i <= players.length; i++) {\r\n            if (players[i] == player) return true;\r\n        }\r\n        return false;\r\n    }\r\n\r\n    // To bet for number between 1 and 10, both inclusive\r\n    // payable modifier used to enable this function to receive ethers when executed\r\n    function bet(uint16 numberSelected) public payable {\r\n        require(!checkPlayerExists(msg.sender));\r\n        require(numberSelected >= 1 && numberSelected <= 10);\r\n        require(msg.value >= minimumBet);\r\n\r\n        playerInfo[msg.sender].amountBet = msg.value;\r\n        playerInfo[msg.sender].numberSelected = numberSelected;\r\n        numberOfBets++;\r\n        players.push(msg.sender);\r\n        totalBet += msg.value;\r\n    }\r\n\r\n    // Generate a number between 1 to 10 that will be the winner\r\n    function generateNumberWinner() public {\r\n        uint256 numberGenerated = block.number % 10 + 1; // this isn't a secure way of generating random number\r\n\r\n        distributePrizes(numberGenerated);\r\n    }\r\n\r\n    //\r\n    function distributePrizes(uint256 numberWinner) public {\r\n        address[100] memory winners; // create a temproary in memory array with fixed size\r\n        uint16 count = 0; // to count the number of players in the winners array\r\n\r\n        for (uint16 i; i <= players.length; i++) {\r\n            address playerAddress = players[i];\r\n            if (playerInfo[playerAddress].numberSelected == numberWinner) {\r\n                winners[count] = playerAddress;\r\n                count++;\r\n            }\r\n\r\n            delete playerInfo[playerAddress]; //Delete all the players\r\n\r\n            players.length = 0;\r\n\r\n            uint256 winnerEtherAmount = totalBet / winners.length; // how much each winner gets?\r\n\r\n            for (uint16 j = 0; j <= winners.length; j++) {\r\n                if (winners[j] != address(0)) { // check that the address in the fixed array is not empty\r\n                    winners[j].transfer(winnerEtherAmount);\r\n                }\r\n            }\r\n        }\r\n\r\n        resetData();\r\n\r\n    }\r\n\r\n    function resetData() {\r\n        players.length = 0;\r\n        totalBet = 0;\r\n        numberOfBets = 0;\r\n\r\n    }\r\n\r\n    // Fallback function in case someone sends ether to the contract so it doesn't get lost and to increase the treasury of this contract that will be distributed in each game\r\n   function() public payable {}\r\n}",
  "sourcePath": "C:\\inthra\\blockChain\\casino-ethereum\\contracts\\Casino_OLD.sol",
  "compiler": {
    "name": "solc",
    "version": "0.4.19+commit.c4cbbb05.Emscripten.clang"
  },
  "schemaVersion": "2.0.0",
  "updatedAt": "2018-04-02T07:32:02.104Z"
}